:020000040800F2
:10000000FF4F0020853700086D02000879020008C4
:100010007F020008850200088B0200080000000033
:100020000000000000000000000000003331000864
:100030009D020008000000002D3200087732000801
:10004000C9370008C9370008C9370008C937000890
:10005000C9370008C9370008C9370008C937000880
:10006000C9370008C9370008C9370008C937000870
:10007000C9370008C9370008C9370008C937000860
:10008000C9370008C9370008C9370008C937000850
:10009000C9370008C9370008C9370008C937000840
:1000A000C9370008C9370008C9370008C937000830
:1000B000C9370008C9370008C9370008C937000820
:1000C000C9370008C9370008C9370008C937000810
:1000D000C9370008C9370008C9370008C937000800
:1000E000C9370008C9370008C937000800000000F8
:1000F0000000000000000000000000000000000000
:0C01000000000000000000005FF808F1A3
:1001100010B5054C237833B9044B13B10448AFF341
:1001200000800123237010BD2C000020000000007F
:10013000DC3700080C4B43B10C4810B50C49AFF349
:1001400000800C48036823B910BD0A48036833B91E
:100150007047094B002BF7D0BDE810401847064BFD
:10016000002BF5D0184700BF00000000DC37000866
:10017000300000202C0000200000000080B582B07C
:1001800000AF78604FF6FF71084800F0F6FA4FF4C0
:10019000FA7001F04BFB4FF6FF71044800F0FBFAD8
:1001A0004FF4FA7001F042FBECE700BF0008014099
:1001B00080B483B000AF78603960FEE780B582B06C
:1001C00002AF00F013F800230193002300930023F3
:1001D0004FF480620349044801F034F901F0CEFD88
:1001E000FEE700BFF43700087D01000880B500AFCE
:1001F00000F018F80121042000F0E4FE074B4FF650
:10020000FF721A80054B01229A70044B1022DA709B
:100210000249034800F098F900BF80BD68490020FA
:100220000008014080B500AF00214FF0006000F0F1
:10023000BBF84FF4407000F043F800BF80BD80B4BD
:1002400083B000AF786002E07B68013B7B607B6835
:10025000002BF9D100BF0C37BD4680BC704780B47D
:1002600083B000AF78603960FEE700BF80B400AFB4
:1002700000BFBD4680BC704780B400AFFEE780B4CD
:1002800000AFFEE780B400AFFEE780B400AFFEE74A
:1002900080B400AF00BFBD4680BC704780B400AFE3
:1002A00000BFBD4680BC704780B400AF00BFBD46F4
:1002B00080BC704780B400AF00BFBD4680BC7047B3
:1002C00080B483B000AF7860054A7B6843F0BF63B9
:1002D00043F40033D36000BF0C37BD4680BC704789
:1002E00000ED00E080B487B000AF786000237B6150
:1002F00000233B610F23FB607B68DB78002B3AD047
:10030000274BDB68DB431B0A03F007037B617B6938
:10031000C3F104033B61FA687B6922FA03F3FB60D3
:100320007B685B781A463B6902FA03F37B617B6862
:100330009B781A46FB6813407A6913437B617B699B
:100340001B017B61174A7B681B787969C9B213442A
:100350000A4683F80023134A7B681B785B09DBB2EB
:1003600018467B681B7803F01F03012101FA03F391
:1003700042F820300FE00B497B681B785B09DBB249
:1003800018467B681B7803F01F0301229A4000F196
:10039000200341F8232000BF1C37BD4680BC7047B6
:1003A00000ED00E000E100E080B483B000AF7860D1
:1003B000396007493B6823F0604323F07F037A6884
:1003C00013438B6000BF0C37BD4680BC704700BF35
:1003D00000ED00E080B483B000AF03460A46FB7135
:1003E0001346BB71BB79002B06D00949084B1A692B
:1003F000FB7913430B6106E00549054B1A69FB794C
:10040000DB4313400B6100BF0C37BD4680BC704717
:1004100000ED00E080B483B000AF78607B68042B0F
:1004200006D1094A084B1B6843F00403136005E03A
:10043000054A054B1B6823F00403136000BF0C370B
:10044000BD4680BC704700BF10E000E080B582B0C0
:1004500000AF78607B682F4A934208D101210420C5
:1004600000F0ECFD0021042000F0E8FD4EE07B6888
:10047000294A934208D10121082000F0DFFD002124
:10048000082000F0DBFD41E07B68244A934208D15C
:100490000121102000F0D2FD0021102000F0CEFD3F
:1004A00034E07B681E4A934208D10121202000F0ED
:1004B000C5FD0021202000F0C1FD27E07B68194A1E
:1004C000934208D10121402000F0B8FD00214020D6
:1004D00000F0B4FD1AE07B68134A934208D1012171
:1004E000802000F0ABFD0021802000F0A7FD0DE092
:1004F0007B680E4A934209D101214FF4807000F0CD
:100500009DFD00214FF4807000F098FD00BF08377A
:10051000BD4680BD00080140000C014000100140B4
:100520000014014000180140001C0140002001405F
:1005300080B500AF0121012000F080FD00210120E5
:1005400000F07CFD00BF80BD80B489B000AF786052
:1005500039600023FB6100233B610023BB61002362
:10056000FB6000237B610023BB603B68DB7803F00A
:100570000F03FB613B68DB7803F01003002B05D011
:100580003B689B781A46FB691343FB613B681B88F9
:10059000DBB2002B44D07B681B687B610023BB610E
:1005A00038E00122BB6902FA03F3FB603B681B8859
:1005B0001A46FB6813403B613A69FB689A4226D1B0
:1005C000BB699B00FB600F22FB6802FA03F3BB6070
:1005D000BB68DB437A6913407B61FA69FB6802FA06
:1005E00003F37A6913437B613B68DB78282B05D1E1
:1005F0000122BB699A407B685A6108E03B68DB785E
:10060000482B04D10122BB699A407B681A61BB69FF
:100610000133BB61BB69072BC3D97B687A691A6058
:100620003B681B88FF2B46D97B685B687B61002396
:10063000BB613AE0BB690833012202FA03F3FB60B5
:100640003B681B881A46FB6813403B613A69FB68AC
:100650009A4227D1BB699B00FB600F22FB6802FA1C
:1006600003F3BB60BB68DB437A6913407B61FA69C3
:10067000FB6802FA03F37A6913437B613B68DB781A
:10068000282B05D1BB69083301229A407B685A6147
:100690003B68DB78482B05D1BB69083301229A40BF
:1006A0007B681A61BB690133BB61BB69072BC1D988
:1006B0007B687A695A6000BF2437BD4680BC7047AA
:1006C00080B483B000AF78607B684FF6FF721A8009
:1006D0007B6802229A707B680422DA7000BF0C37B4
:1006E000BD4680BC704780B485B000AF78600B46D3
:1006F0007B800023FB737B689A687B881340002B08
:1007000002D00123FB7301E00023FB73FB7B18463F
:100710001437BD4680BC704780B483B000AF7860AA
:100720007B689B689BB218460C37BD4680BC7047FF
:1007300080B485B000AF78600B467B800023FB73EC
:100740007B68DA687B881340002B02D00123FB739F
:1007500001E00023FB73FB7B18461437BD4680BCC9
:10076000704780B483B000AF78607B68DB689BB271
:1007700018460C37BD4680BC704780B483B000AFCC
:1007800078600B467B807A887B681A6100BF0C37E3
:10079000BD4680BC704780B483B000AF78600B4624
:1007A0007B807A887B685A6100BF0C37BD4680BC6D
:1007B000704780B483B000AF78600B467B801346EF
:1007C0007B707B78002B03D07A887B681A6102E00B
:1007D0007A887B685A6100BF0C37BD4680BC704781
:1007E00080B483B000AF78600B467B807A887B68EA
:1007F000DA6000BF0C37BD4680BC704780B485B05E
:1008000000AF78600B467B804FF48033FB607B88C1
:10081000FA681343FB607B68FA689A617A887B68A0
:100820009A617B68FA689A617B689B69FB607B6868
:100830009B69FB6000BF1437BD4680BC704780B425
:1008400085B000AF03460A46FB711346BB71002317
:10085000FB600C4B1B68FB60FA684FF6807313401B
:10086000FB60FB791B01FA681343FB60BB79FA68F4
:100870001343FB60034AFB68136000BF1437BD4697
:1008800080BC70470000014080B483B000AF0346D5
:10089000FB71044AFB79136000BF0C37BD4680BC76
:1008A000704700BF1C00204280B487B000AF786062
:1008B0000B46FB7000233B610023FB6000237B6140
:1008C0000023BB607B68002B03DA2E4BDB697B6166
:1008D00002E02C4B5B687B617B681B0C03F00F0311
:1008E000BB607B689BB23B617B6803F44013B3F54C
:1008F000401F0AD17B6923F070637B61214A214B41
:100900005B6823F07063536021E07B6803F480131D
:10091000002B0ED00322BB6802FA03F3FB60FB68D6
:10092000DB437A6913407B617B6943F070637B61D1
:100930000DE07B685B0D1B013A6902FA03F3DB43B0
:100940007A6913407B617B6943F070637B61FB785C
:10095000002B08D07B685B0D1B013A6902FA03F398
:100960007A6913437B617B68002B03DA054A7B6954
:10097000D36102E0034A7B69536000BF1C37BD4668
:1009800080BC70470000014090B484B000AF0346C3
:100990000A46FB711346BB710023FB60BB7903F071
:1009A00003039B000F2202FA03F3FB601649BB7995
:1009B0009B08DBB21846144ABB799B08DBB20233B2
:1009C00052F82320FB68DB431A40831C41F82320A4
:1009D0000D48BB799B08DBB21C460B4ABB799B08D0
:1009E000DBB2023352F82320F979BB7903F0030319
:1009F0009B0001FA03F31A43A31C40F8232000BF15
:100A00001037BD4690BC70470000014080B483B0F1
:100A100000AF7860034A7B68136000BF0C37BD46A7
:100A200080BC7047DC00204280B400AF134A134BF7
:100A30001B6843F0010313601049104B5A68104BB8
:100A400013404B600D4A0D4B1B6823F0847323F455
:100A500080331360094A094B1B6823F48023136019
:100A6000064A064B5B6823F4FE035360034B4FF4C6
:100A70001F029A6000BFBD4680BC70470010024054
:100A80000000FFF880B483B000AF7860134A134BC6
:100A90001B6823F480331360104A104B1B6823F447
:100AA000802313607B68B3F5803F03D0B3F5802FBC
:100AB00007D00DE0094A094B1B6843F480331360EB
:100AC00006E0064A054B1B6843F4A023136000BFF1
:100AD00000BF0C37BD4680BC704700BF001002400D
:100AE00080B582B000AF00233B600023FB71002380
:100AF000BB71312000F00EFB0346BB713B68013334
:100B00003B603B68B3F5A06F02D0BB79002BF0D0FF
:100B1000312000F0FFFA0346002B02D00123FB71C5
:100B200001E00023FB71FB7918460837BD4680BD04
:100B300080B485B000AF0346FB710023FB600A4B15
:100B40001B68FB60FB6823F0F803FB60FB79DB00AC
:100B5000FA681343FB60044AFB68136000BF143754
:100B6000BD4680BC704700BF0010024080B483B017
:100B700000AF0346FB71044AFB79136000BF0C37DA
:100B8000BD4680BC704700BF0000424280B485B0C3
:100B900000AF786039600023FB600A4B5B68FB6044
:100BA000FB6823F47C13FB607A683B681343FA68A4
:100BB0001343FB60034AFB68536000BF1437BD4614
:100BC00080BC70470010024080B483B000AF034681
:100BD000FB71044AFB79136000BF0C37BD4680BC33
:100BE000704700BF6000424280B485B000AF7860BB
:100BF0000023FB60094B5B68FB60FB6823F0030389
:100C0000FB60FA687B681343FB60044AFB6853602F
:100C100000BF1437BD4680BC704700BF00100240C3
:100C200080B400AF044B5B68DBB203F00C03DBB2B3
:100C30001846BD4680BC70470010024080B485B0A5
:100C400000AF78600023FB60094B5B68FB60FB68CA
:100C500023F0F003FB60FA687B681343FB60044AEF
:100C6000FB68536000BF1437BD4680BC704700BFAF
:100C70000010024080B485B000AF78600023FB60B4
:100C8000094B5B68FB60FB6823F4E063FB60FA6878
:100C90007B681343FB60044AFB68536000BF143752
:100CA000BD4680BC704700BF0010024080B485B0D4
:100CB00000AF78600023FB60094B5B68FB60FB685A
:100CC00023F46053FB607B68DB00FA681343FB602E
:100CD000034AFB68536000BF1437BD4680BC7047B1
:100CE0000010024080B483B000AF03460A46FB7197
:100CF0001346BB71BB79002B08D00C490B4B1B78FA
:100D0000DAB2FB791343DBB20B7009E00749074BFA
:100D10001B78DAB2FB79DB43DBB21340DBB20B703A
:100D200000BF0C37BD4680BC704700BF09100240B1
:100D300080B483B000AF7860034A7B68136000BF63
:100D40000C37BD4680BC7047D800424280B485B0A5
:100D500000AF78600023FB60094B5B68FB60FB68B9
:100D600023F44043FB60FA687B681343FB60044A4A
:100D7000FB68536000BF1437BD4680BC704700BF9E
:100D80000010024080B483B000AF0346FB710C4BEF
:100D900000221A700A4B00221A70FB79012B02D034
:100DA000042B04D007E0064B01221A7003E0044B29
:100DB00005221A7000BF00BF0C37BD4680BC7047CB
:100DC0002010024080B483B000AF0346FB71044A98
:100DD000FB79136000BF0C37BD4680BC704700BF75
:100DE0008004424280B483B000AF78600549054B6F
:100DF0001A6A7B6813430B6200BF0C37BD4680BC88
:100E0000704700BF0010024080B483B000AF0346BB
:100E1000FB71044AFB79136000BF0C37BD4680BCF0
:100E2000704700BF3C04424280B487B000AF786096
:100E300000237B6100233B610023FB600023BB6038
:100E40004C4B5B6803F00C037B617B69042B07D080
:100E5000082B09D0002B33D17B68474A1A6033E056
:100E60007B68454A1A602FE0424B5B6803F47013BD
:100E70003B61404B5B6803F48033FB603B699B0C38
:100E800002333B61FB68002B06D13B693B4A02FB06
:100E900003F27B681A6017E0364B5B6803F400339B
:100EA000002B06D03B69354A02FB03F27B681A60CF
:100EB0000AE03B69304A02FB03F27B681A6003E0F8
:100EC0007B682D4A1A6000BF2A4B5B6803F0F00371
:100ED0007B617B691B097B61294A7B6913441B7811
:100EE000DBB2BB607B681A68BB68DA407B685A601B
:100EF000204B5B6803F4E0637B617B691B0A7B61C9
:100F00001F4A7B6913441B78DBB2BB607B685A685D
:100F1000BB68DA407B689A60164B5B6803F46053E9
:100F20007B617B69DB0A7B61154A7B6913441B7813
:100F3000DBB2BB607B685A68BB68DA407B68DA600A
:100F40000C4B5B6803F440437B617B699B0B7B61CB
:100F50000C4A7B6913441B78DBB2BB607B68DA68A0
:100F6000BB68B2FBF3F27B681A6100BF1C37BD4659
:100F700080BC70470010024000127A0000093D005A
:100F8000000000201000002080B483B000AF786023
:100F90000B46FB70FB78002B06D00949084B5A69B9
:100FA0007B6813434B6106E00549054B5A697B6832
:100FB000DB4313404B6100BF0C37BD4680BC70471C
:100FC0000010024080B483B000AF78600B46FB7025
:100FD000FB78002B06D00949084B9A697B681343BC
:100FE0008B6106E00549054B9A697B68DB4313403A
:100FF0008B6100BF0C37BD4680BC704700100240BB
:1010000080B483B000AF78600B46FB70FB78002B98
:1010100006D00949084BDA697B681343CB6106E0C7
:101020000549054BDA697B68DB431340CB6100BFA0
:101030000C37BD4680BC70470010024080B483B0BE
:1010400000AF78600B46FB70FB78002B06D0094997
:10105000084BDA687B681343CB6006E00549054B13
:10106000DA687B68DB431340CB6000BF0C37BD46BA
:1010700080BC70470010024080B483B000AF78603D
:101080000B46FB70FB78002B06D00949084B1A6908
:101090007B6813430B6106E00549054B1A697B68C1
:1010A000DB4313400B6100BF0C37BD4680BC70476B
:1010B0000010024080B483B000AF0346FB71044AC5
:1010C000FB79136000BF0C37BD4680BC704700BF82
:1010D0004004424280B483B000AF0346FB71044A2F
:1010E000FB79136000BF0C37BD4680BC704700BF62
:1010F0004C00424280B483B000AF0346FB71044A07
:10110000FB79137000BF0C37BD4680BC704700BF31
:101110000710024080B487B000AF0346FB71002384
:10112000FB6000237B610023FB74FB795B09DBB26E
:10113000FB60FB68012B03D1124B1B687B6109E04C
:10114000FB68022B03D10F4B1B6A7B6102E00D4B46
:101150005B6A7B61FB7903F01F03FB607A69FB68C4
:1011600022FA03F303F00103002B02D00123FB74E6
:1011700001E00023FB74FB7C18461C37BD4680BC95
:10118000704700BF0010024080B400AF044A044B17
:101190005B6A43F08073536200BFBD4680BC7047FA
:1011A0000010024080B485B000AF0346FB710023FD
:1011B000FB73084B9A68FB791340002B02D0012384
:1011C000FB7301E00023FB73FB7B18461437BD461D
:1011D00080BC70470010024080B483B000AF03466B
:1011E000FB71044AFB79137000BF0C37BD4680BC0D
:1011F000704700BF0A10024080B500AF154A154B7A
:101200001B6843F0010313601249124B5A68124BDA
:1012100013404B600F4A0F4B1B6823F0847323F479
:10122000803313600B4A0B4B1B6823F4802313603D
:10123000084A084B5B6823F4FE035360054B4FF4E8
:101240001F029A6000F078F8044B4FF000629A6039
:1012500000BF80BD001002400000FFF800ED00E07C
:1012600080B485B000AF0023FB600023BB60002387
:101270007B602C4B5B6803F00C03FB60FB68042B6A
:1012800007D0082B09D0002B33D1274B274A1A60EF
:1012900033E0254B254A1A602FE0224B5B6803F4AC
:1012A0007013BB601F4B5B6803F480337B60BB68CB
:1012B0009B0C0233BB607B68002B06D1BB681C4AC9
:1012C00002FB03F3184A136017E0164B5B6803F444
:1012D0000033002B06D0BB68154A02FB03F3124A09
:1012E00013600AE0BB68114A02FB03F30E4A136065
:1012F00003E00D4B0D4A1A6000BF0A4B5B681B09E7
:1013000003F00F030B4AD35CDBB2FB60064B1A6899
:10131000FB6822FA03F3044A136000BF1437BD468A
:1013200080BC7047001002401400002000127A00B8
:1013300000093D001800002080B500AF00F002F861
:1013400000BF80BD80B483B000AF00237B6000236A
:101350003B603A4A394B1B6843F480331360374B88
:101360001B6803F400333B607B6801337B603B68A0
:10137000002B03D17B68B3F5A06FF0D12F4B1B6816
:1013800003F40033002B02D001233B6001E0002373
:101390003B603B68012B4BD1294A294B1B6843F02A
:1013A00010031360264A264B1B6823F003031360C7
:1013B000234A234B1B6843F0020313601F4A1F4B51
:1013C0005B6853601D4A1D4B5B6853601B4A1B4B97
:1013D0005B6843F480635360184A184B5B6823F4DE
:1013E0007C135360154A154B5B6843F4E813536054
:1013F000124A124B1B6843F08073136000BF0F4BFF
:101400001B6803F00073002BF9D00C4A0B4B5B6890
:1014100023F003035360094A084B5B6843F002035F
:10142000536000BF054B5B6803F00C03082BF9D138
:1014300000BF0C37BD4680BC704700BF00100240A3
:101440000020024080B58CB004AFF860B9603B600A
:101450001346FB80FB889B00184601F041FF786132
:101460007B69002B0ED05C2001F03AFFF861FB692C
:10147000002B03D0FB697A691A6305E0786901F0F3
:10148000C3FF01E00023FB61FB69002B13D0FA8846
:1014900000230393FB690293FB6A0193BB6A0093E9
:1014A0003B68B968F86800F00EF8F86900F082F857
:1014B0000123BB6102E04FF0FF33BB61BB691846FB
:1014C0002037BD4680BD80B586B000AFF860B960FA
:1014D0007A603B60BB6A186B7B689B001A46A5214B
:1014E00002F073F9BB6A1A6B7B6803F18043013B1E
:1014F0009B0013443B613B6923F007033B610023DE
:101500007B6112E0BA687B6913441978BA6A7B6917
:10151000134434330A461A70BA687B6913441B7843
:10152000002B06D07B6901337B617B690F2BE9D9E6
:1015300000E000BFBB6A002283F843203B6A042B13
:1015400001D904233B62BB6A3A6ADA62BB6A3A6A2F
:10155000DA64BB6A00221A65BB6A0433184602F0DB
:1015600080F8BB6A1833184602F07BF8BB6ABA6A87
:101570001A613B6AC3F10502BB6A9A61BB6ABA6A27
:101580005A62BB6A00225A65BB6A002283F858205F
:101590003A68F968386901F093FD0246BB6A1A603F
:1015A0007B6A002B02D07B6ABA6A1A6000BF1837C8
:1015B000BD4680BD80B582B000AF786001F006FE08
:1015C0002C4B1B6801332B4A13602B4B1B68002BE1
:1015D00009D1294A7B681360264B1B68012B10D167
:1015E00001F00EF80DE0254B1B68002B09D1224BB2
:1015F0001B68DA6A7B68DB6A9A4202D81E4A7B68FB
:1016000013601F4B1B6801331D4A13601C4B1A6883
:101610007B685A647B68DB6A01229A40194B1B681D
:101620001343184A13607B68DA6A13469B0013441D
:101630009B00154A1A447B6804331946104602F091
:101640001CF801F0DBFD0D4B1B68002B0ED00A4B84
:101650001B68DA6A7B68DB6A9A4207D20B4B4FF051
:1016600080521A60BFF34F8FBFF36F8F00BF0837F0
:10167000BD4680BD20010020480000202C01002034
:101680003C010020280100204C00002004ED00E077
:1016900080B584B000AF786001F098FD7B68002BC6
:1016A00002D1314B1B6800E07B68FB60FB680433B0
:1016B000184602F03DF80346002B15D1FB68DA6AA4
:1016C0002A4913469B0013449B000B441B68002BC4
:1016D0000AD1FB68DB6A012202FA03F3DA43244BE6
:1016E0001B681340224A1360FB689B6A002B04D0DE
:1016F000FB681833184602F01BF81E4B1B680133B9
:101700001C4A1360184B1B68FA689A420BD1FB689D
:1017100004331946184801F0B0FF184B1B68013319
:10172000164A136009E0164B1B68013B144A13600C
:10173000F86801F0ACF801F0BAF801F05FFD114B68
:101740001B68002B0CD0084B1B68FA689A4207D123
:101750000D4B4FF080521A60BFF34F8FBFF36F8F66
:1017600000BF1037BD4680BD480000204C0000205F
:10177000280100203C010020F40000200801002086
:10178000200100202C01002004ED00E080B586B08F
:1017900000AF7860396000237B6100F03DFB214B96
:1017A0001B683B617B681A683B681344FB607B687D
:1017B0001A683B699A420BD97B681A68FB689A429F
:1017C00011D9FA683B699A420DD901237B610AE07D
:1017D0007B681A68FB689A4203D8FA683B699A42A8
:1017E00001D901237B617B68FA681A607B69002B51
:1017F00006D0FA683B69D31A0021184601F0F8FBBD
:1018000000F018FBB860BB68002B07D1064B4FF007
:1018100080521A60BFF34F8FBFF36F8F00BF18372E
:10182000BD4680BD2401002004ED00E080B584B0F9
:1018300000AF78600023FB607B68002B08D000F0CD
:10184000EBFA0021786801F0D3FB00F0F3FAF860BE
:10185000FB68002B07D1064B4FF080521A60BFF394
:101860004F8FBFF36F8F00BF1037BD4680BD00BFE5
:1018700004ED00E080B586B000AF78607B683B6126
:101880001D4B1B683A699A4202D10023FB752DE07B
:1018900001F09CFC3B695B69FB6001F0AFFC174BFE
:1018A0001B68FA689A4204D0154B1B68FA689A4282
:1018B00002D10223FB7519E0FB68124A934209D159
:1018C0003B699B6A002B02D10323FB750EE00223C8
:1018D000FB750BE0FB680C4A934202D0FB68002BBF
:1018E00002D10423FB7501E00123FB75FB7D184643
:1018F0001837BD4680BD00BF48000020D80000203A
:10190000DC0000200C010020F400002080B584B031
:1019100000AF786001F05AFC7B68002B02D1074BC6
:101920001B6800E07B68FB60FB68DB6ABB6001F062
:1019300065FCBB6818461037BD4680BD48000020D6
:1019400080B489B000AF7860EFF311824FF0BF032D
:1019500083F31188BFF36F8FBFF34F8F3A61FB6042
:101960003B69FB617B68002B02D1094B1B6800E0DF
:101970007B68BB61BB69DB6A7B61FB69BB60BB6881
:1019800083F311887B6918462437BD4680BC7047B5
:101990004800002080B586B000AF78603960002331
:1019A0007B613B68042B01D904233B6001F00EFCF2
:1019B0007B68002B02D1434B1B6800E07B683B61D6
:1019C0003B69DB6CFB60FA683B689A4274D03A680A
:1019D000FB689A420DD93B4B1B683A699A420FD07B
:1019E000384B1B68DA6A3B689A4209D801237B614D
:1019F00006E0344B1B683A699A4201D101237B61AE
:101A00003B69DB6ABB603B69DA6C3B69DB6A9A4223
:101A100002D13B693A68DA623B693A68DA643B6949
:101A20009B69002B04DB3B68C3F105023B699A61AB
:101A30003B695969BA6813469B0013449B00224ACC
:101A40001344994201D1012300E00023002B28D048
:101A50003B690433184601F06BFE0346002B09D1A5
:101A60000122BB6802FA03F3DA43184B1B681340E8
:101A7000164A13603B69DB6A01229A40134B1B68CC
:101A80001343124A13603B69DA6A13469B001344FE
:101A90009B000D4A1A443B6904331946104601F075
:101AA000ECFD7B69002B07D0094B4FF080521A6088
:101AB000BFF34F8FBFF36F8F01F0A0FB00BF18374C
:101AC000BD4680BD480000204C00002028010020B9
:101AD00004ED00E080B584B000AF786001F076FBE3
:101AE0007B68002B02D1304B1B6800E07B68FB60F9
:101AF000FB680433184601F01BFE0346002B15D18A
:101B0000FB68DA6A294913469B0013449B000B4487
:101B10001B68002B0AD1FB68DB6A012202FA03F37F
:101B2000DA43234B1B681340214A1360FB689B6A0E
:101B3000002B04D0FB681833184601F0F9FDFB6850
:101B4000043319461B4801F098FD01F057FB1A4B6E
:101B50001B68002B05D001F039FB00F0A8FE01F056
:101B60004DFB114B1B68FA689A4218D1124B1B6847
:101B7000002B08D0114B4FF080521A60BFF34F8FEB
:101B8000BFF36F8F0BE00B4B1A680D4B1B689A422B
:101B900003D1054B00221A6001E000F051FB00BFA9
:101BA0001037BD4680BD00BF480000204C0000201B
:101BB000280100200C0100202C01002004ED00E091
:101BC0002001002080B485B000AF78600023FB6066
:101BD0007B68BB60BB685B690E4A934201D10123FD
:101BE00000E00023002B0FD0BB689B6A0A4A934297
:101BF0000AD0BB689B6A002B01D1012300E00023BF
:101C0000002B01D00123FB60FB6818461437BD464A
:101C100080BC70470C010020E000002080B584B03B
:101C200000AF78607B68FB60FB68002B39D01F4BEE
:101C30001B68FA689A4234D001F0C8FAF868FFF7D6
:101C4000C1FF0346002B2AD0FB680433184601F07D
:101C50006FFDFB68DB6A01229A40154B1B6813433A
:101C6000134A1360FB68DA6A13469B0013449B0017
:101C7000104A1A44FB6804331946104601F0FDFC73
:101C8000FB68DA6A094B1B68DB6A9A4207D30A4B86
:101C90004FF080521A60BFF34F8FBFF36F8F01F088
:101CA000ADFA00BF1037BD4680BD00BF4800002020
:101CB000280100204C00002004ED00E080B588B031
:101CC00000AF78600023FB617B68BB61EFF311829A
:101CD0004FF0BF0383F31188BFF36F8FBFF34F8FB4
:101CE0003A61FB603B697B61B869FFF76BFF0346B4
:101CF000002B2FD01C4B1B68002B25D1BB69DA6A47
:101D00001A4B1B68DB6A9A4201D30123FB61BB6952
:101D10000433184601F00CFDBB69DB6A01229A40CE
:101D2000134B1B681343124A1360BB69DA6A1346EC
:101D30009B0013449B000F4A1A44BB6904331946A5
:101D4000104601F09AFC05E0BB69183319460A48B1
:101D500001F093FC7B69BB60BB6883F31188FB696E
:101D600018462037BD4680BD4801002048000020AD
:101D7000280100204C000020E000002080B584B045
:101D800002AF134B019300230093002378221149E3
:101D90001148FFF757FB78607B68012B14D14FF097
:101DA000BF0383F31188BFF36F8FBFF34F8F3B6087
:101DB0000A4B4FF0FF321A60094B01221A60094B9F
:101DC00000221A6001F0DDF900BF0837BD4680BD72
:101DD00044010020F8370008D32500084001002006
:101DE0002C0100202401002080B582B000AF4FF00C
:101DF000BF0383F31188BFF36F8FBFF34F8F7B60F7
:101E0000044B00221A6001F0DBF900BF0837BD4621
:101E100080BD00BF2C01002080B400AF044B1B68C4
:101E20000133034A136000BFBD4680BC704700BF4A
:101E30004801002080B584B000AF0023FB60002380
:101E4000BB6001F0C3F9394B1B68013B374A136093
:101E5000364B1B68002B61D1354B1B68002B5DD0C6
:101E60002EE0344BDB68DB68FB60FB6818331846F8
:101E700001F05EFCFB680433184601F059FCFB6876
:101E8000DB6A01229A402C4B1B6813432A4A1360D9
:101E9000FB68DA6A13469B0013449B00274A1A44E6
:101EA000FB6804331946104601F0E7FBFB68DA6A69
:101EB000234B1B68DB6A9A4202D3224B01221A6031
:101EC0001C4B1B68002BCCD1FB68002B01D000F011
:101ED000EEFC1D4B1B687B607B68002B10D000F074
:101EE00003F90346002B02D0164B01221A607B68CF
:101EF000013B7B607B68002BF1D1134B00221A6001
:101F0000104B1B68002B09D00123BB600F4B4FF017
:101F100080521A60BFF34F8FBFF36F8F01F06EF9DD
:101F2000BB6818461037BD4680BD00BF4801002081
:101F300020010020E0000020280100204C000020AB
:101F400048000020340100203001002004ED00E0B2
:101F500080B483B000AF044B1B687B607B6818467D
:101F60000C37BD4680BC70472401002080B483B08C
:101F700000AF00237B60044B1B683B603B68184646
:101F80000C37BD4680BC70472401002080B400AFF0
:101F9000024B1B681846BD4680BC704720010020DC
:101FA00080B485B000AF78607B68002B02D1064B0F
:101FB0001B6800E07B68FB60FB683433184614370D
:101FC000BD4680BC704700BF4800002080B586B089
:101FD00000AFF860B9607A6000237B6105233B6144
:101FE000FFF71AFF3A4B1B68BA689A4268D33B69FD
:101FF000013B3B617A691346DB0013449B001A46A0
:10200000FB6898183A6913469B0013449B00314AB9
:1020100013440122194600F0CDFB02467B691344AC
:102020007B613B69002BE2D17A691346DB001344E4
:102030009B001A46FB689818274B1B68022219461A
:1020400000F0B8FB02467B6913447B617A69134652
:10205000DB0013449B001A46FB6898181F4B1B6853
:102060000222194600F0A6FB02467B6913447B61FD
:102070007A691346DB0013449B001A46FB6813443D
:1020800004221749184600F095FB02467B69134469
:102090007B617A691346DB0013449B001A46FB6898
:1020A000134403220F49184600F084FB02467B6963
:1020B00013447B617B68002B02D07B6800221A608E
:1020C000FFF7B8FE7B6918461837BD4680BD00BFD4
:1020D000200100204C000020D8000020DC0000205F
:1020E000F40000200C01002080B586B000AF002372
:1020F0007B61484B1B68002B7CD1474B1B6801332D
:102100003B61454A3B6913603B69002B10D1434B4F
:102110001B68FB60424B1B68404A1360404AFB68E7
:102120001360404B1B6801333E4A136000F0BFFB55
:102130003D4B1B683A699A424DD3384B1B681B686C
:10214000002B01D1012300E00023002B04D0364BEB
:102150004FF0FF321A603EE0304B1B68DB68DB68F3
:10216000BB60BB685B687B603A697B689A4203D25C
:102170002D4A7B6813602EE0BB680433184601F0DB
:10218000D7FABB689B6A002B04D0BB68183318468B
:1021900001F0CEFABB68DB6A01229A40234B1B6830
:1021A0001343224A1360BB68DA6A13469B00134448
:1021B0009B001F4A1A44BB6804331946104601F0BD
:1021C0005CFABB68DA6A1B4B1B68DB6A9A42B4D3C1
:1021D00001237B61B1E7174B1B68DA6A1449134688
:1021E0009B0013449B000B441B68012B07D9012360
:1021F0007B6104E0104B1B6801330F4A13600F4BE7
:102200001B68002B01D001237B617B6918461837BE
:10221000BD4680BD4801002024010020D8000020D8
:10222000DC000020380100204001002028010020AF
:102230004C00002048000020300100203401002024
:1022400080B586B000AF2F4B1B68002B03D02E4B00
:1022500001221A6051E02C4B00221A602B4B1B68A4
:102260001B6B7B614FF0A5333B617B691A683B694F
:102270009A4211D17B6904331A683B699A420BD1A7
:102280007B6908331A683B699A4205D17B690C3334
:102290001A683B699A4208D01C4B1A681B4B1B6892
:1022A000343319461046FDF783FF194B1B687B60DA
:1022B0007B68B3FA83F3FB70FB78C3F11F03FB6009
:1022C000FA6813469B0013449B00124A1344BB60F8
:1022D000BB685B685A68BB685A60BB685A68BB6871
:1022E00008339A4204D1BB685B685A68BB685A607D
:1022F000BB685B68DB68054A136000BF1837BD46E2
:1023000080BD00BF480100203401002048000020AB
:10231000280100204C00002080B582B000AF78601A
:102320003960074B1B6818331946786801F0C8F903
:102330000121386800F05CFE00BF0837BD4680BD53
:102340004800002080B584B000AFF860B9607A60C2
:102350000A4B1B68BA6842F000429A61074B1B683F
:1023600018331946F86801F088F90121786800F0FF
:102370003FFE00BF1037BD4680BD00BF48000020B3
:1023800080B584B000AF78607B68DB68DB68BB60D9
:10239000BB681833184601F0CBF91D4B1B68002BA6
:1023A0001CD1BB680433184601F0C2F9BB68DB6A74
:1023B00001229A40174B1B681343164A1360BB68EF
:1023C000DA6A13469B0013449B00134A1A44BB6805
:1023D00004331946104601F050F905E0BB68183384
:1023E00019460E4801F049F9BB68DA6A0C4B1B68C4
:1023F000DB6A9A4205D90123FB600A4B01221A606D
:1024000001E00023FB60FB6818461037BD4680BD25
:1024100048010020280100204C000020E00000209E
:10242000480000203401002080B584B000AF7860FF
:1024300039603B6843F000427B681A607B68DB6868
:10244000BB60786801F074F9BB680433184601F08A
:102450006FF9BB68DB6A01229A40134B1B68134378
:10246000114A1360BB68DA6A13469B0013449B0051
:102470000E4A1A44BB6804331946104601F0FDF8B1
:10248000BB68DA6A0A4B1B68DB6A9A4205D90123EA
:10249000FB60084B01221A6001E00023FB60FB682F
:1024A00018461037BD4680BD280100204C00002092
:1024B000480000203401002080B483B000AF786071
:1024C000064B1A687B681A60054B1A687B685A606D
:1024D00000BF0C37BD4680BC704700BF38010020EC
:1024E0002401002080B584B000AF7860396000F02E
:1024F0006DFE1C4B1B68BB603B681B68B3F1FF3F64
:1025000002D10023FB6026E07B681A68164B1B682B
:102510009A4207D07B685A68BB689A4202D8012366
:10252000FB6018E07B685B68BA68D21A3B681B687E
:102530009A420ED23B681A687B685968BB68CB1A0E
:102540001A443B681A607868FFF7B6FF0023FB6007
:1025500001E00123FB6000F051FEFB6818461037D4
:10256000BD4680BD240100203801002080B400AFAA
:10257000034B01221A6000BFBD4680BC704700BFFC
:102580003401002080B485B000AF78607B68002BF8
:1025900005D07B68BB60BB689B6CFB6001E00023DF
:1025A000FB60FB6818461437BD4680BC704780B49A
:1025B00085B000AF786039607B68002B04D07B6801
:1025C000FB60FB683A689A6400BF1437BD4680BC64
:1025D000704780B582B000AF786000F051F8064BCC
:1025E0001B68012BF9D9054B4FF080521A60BFF3DD
:1025F0004F8FBFF36F8FF0E74C00002004ED00E039
:1026000080B582B000AF00237B600CE07A6813468F
:102610009B0013449B00124A1344184601F002F831
:102620007B6801337B607B68042BEFD90D4800F099
:10263000F9FF0D4800F0F6FF0C4800F0F3FF0C48DE
:1026400000F0F0FF0B4800F0EDFF0B4B054A1A605D
:102650000A4B054A1A6000BF0837BD4680BD00BF5F
:102660004C000020B0000020C4000020E00000204A
:10267000F40000200C010020D8000020DC00002025
:1026800080B582B000AF28E0FFF7C6FB174B1B6890
:10269000002B0CBF01230023DBB27B60FFF7CAFBDA
:1026A0007B68002B19D100F091FD104BDB68DB68D3
:1026B0003B603B680433184601F03AF80C4B1B684A
:1026C000013B0B4A13600B4B1B68013B094A13602B
:1026D00000F094FD386800F0DAF8064B1B68002B18
:1026E000D2D100BF0837BD4680BD00BFF400002036
:1026F000200100200801002080B586B000AFF860FE
:10270000B9607A60FB70FB68002B02D1284B1B6814
:1027100000E0FB687B61BB687A691A607B6903F142
:102720003402BB685A607B69DA6ABB681A617B69EC
:102730001A6BBB68DA617B695A6CBB689A60BB68CC
:102740001B7B032B0AD1FFF767FB7B699B6A002B7E
:1027500002D0BB6802221A73FFF76CFB7B69DA6C4C
:10276000BB685A61BB6800229A61FB78052B03D0D5
:10277000BB68FA781A7306E0F868FFF77BF803463F
:102780001A46BB681A737B68002B09D07B691B6BE8
:10279000184600F061F803461A46BB681A8402E046
:1027A000BB6800221A8400BF1837BD4680BD00BF39
:1027B0004800002080B58AB000AFF860B9601346C9
:1027C000FB7100237B62BB681B68002B3FD0BB689A
:1027D0003B623B6A5B685A683B6A5A603B6A5A686C
:1027E0003B6A08339A4204D13B6A5B685A683B6A89
:1027F0005A603B6A5B68DB68FB61BB68BB61BB69B5
:102800005B685A68BB695A60BB695A68BB69083320
:102810009A4204D1BB695B685A68BB695A60BB695C
:102820005B68DB687B617A6A1346DB0013449B00BC
:102830001A46FB689918FB7901227869FFF75CFF5B
:102840007B6A01337B627A69FB699A42D5D17B6AE4
:1028500018462837BD4680BD80B485B000AF78608B
:102860000023FB6005E07B6801337B60FB6801337C
:10287000FB607B681B78A52BF5D0FB689B08FB6091
:10288000FB689BB218461437BD4680BC704780B5C4
:1028900082B000AF78607B681B6B184600F0B4FD17
:1028A000786800F0B1FD00BF0837BD4680BD80B438
:1028B00083B000AF0E4B1B681B68002B01D10123B6
:1028C00000E00023002B04D00A4B4FF0FF321A60C7
:1028D00008E0074B1B68DB68DB687B607B685B6834
:1028E000044A136000BF0C37BD4680BC704700BF70
:1028F000D80000204001002080B483B000AF044B1A
:102900001B687B607B6818460C37BD4680BC7047EF
:102910004800002080B584B000AF78607B68FB6021
:102920007B68002B62D0FB68DA6A324B1B68DB6A7B
:102930009A425BD2FB689B69002B06DB2D4B1B6820
:10294000DB6AC3F10502FB689A61FB685969FB68A1
:10295000DA6A13469B0013449B00274A13449942AA
:1029600001D1012300E00023002B3AD0FB6804339F
:10297000184600F0DDFE0346002B15D1FB68DA6A2D
:102980001D4913469B0013449B000B441B68002BFE
:102990000AD1FB68DB6A012202FA03F3DA43174B20
:1029A0001B681340154A1360124B1B68DA6AFB68F8
:1029B000DA62FB68DB6A01229A40104B1B68134302
:1029C0000E4A1360FB68DA6A13469B0013449B00AF
:1029D000094A1A44FB6804331946104600F04DFEBC
:1029E00004E0044B1B68DA6AFB68DA6200BF103748
:1029F000BD4680BD480000204C000020280100207A
:102A000080B584B000AF78607B68BB600023FB605A
:102A10007B68002B4FD0BB681B6D5A1EBB681A65C4
:102A2000BB68DA6ABB68DB6C9A4244D0BB681B6D3A
:102A3000002B40D1BB680433184600F079FE0346F2
:102A4000002B15D1BB68DA6A1D4913469B0013445D
:102A50009B000B441B68002B0AD1BB68DB6A012278
:102A600002FA03F3DA43174B1B681340154A13604D
:102A7000BB68DA6CBB68DA62BB68DB6AC3F105026B
:102A8000BB689A61BB68DB6A01229A400D4B1B68E8
:102A900013430C4A1360BB68DA6A13469B00134465
:102AA0009B00074A1A44BB6804331946104600F0DD
:102AB000E4FD0123FB60FB6818461037BD4680BD6E
:102AC0004C0000202801002080B483B000AF094BE7
:102AD0001B689B697B60074B1B68064A1268D26AB9
:102AE000C2F105029A617B6818460C37BD4680BC6E
:102AF000704700BF4800002080B400AF074B1B6840
:102B0000002B04D0054B1B681A6D01321A65034B6C
:102B10001B681846BD4680BC704700BF48000020B7
:102B200080B584B000AF7860396000F04FFB1E4B79
:102B30001B685B6D002B13D11B4B1B68012283F8B4
:102B400058203B68002B0BD00121386800F050FA68
:102B5000164B4FF080521A60BFF34F8FBFF36F8F49
:102B600000F04CFB00F032FB0F4B1B685B6DFB6011
:102B7000FB68002B0CD07B68002B04D00A4B1B6831
:102B800000225A6504E0084B1B68FA68013A5A654E
:102B9000054B1B68002283F8582000F02FFBFB68D0
:102BA00018461037BD4680BD4800002004ED00E007
:102BB00080B586B000AFF860B9607A603B6000F025
:102BC00005FB264B1B6893F85830DBB2022B1AD05A
:102BD000224B1B68596DFA68D2430A405A651F4B55
:102BE0001B68012283F858203B68002B0BD0012181
:102BF000386800F0FDF91A4B4FF080521A60BFF3AD
:102C00004F8FBFF36F8F00F0F9FA00F0DFFA7B68A7
:102C1000002B04D0114B1B685A6D7B681A600F4B58
:102C20001B6893F85830DBB2012B02D100237B6183
:102C300008E00A4B1B68596DBA68D2430A405A65CE
:102C400001237B61054B1B68002283F8582000F0AC
:102C5000D5FA7B6918461837BD4680BD480000206C
:102C600004ED00E080B588B000AFF860B9603B606B
:102C70001346FB710123FB61FB68BB6100F0A6FA00
:102C80003B68002B03D0BB695A6D3B681A60BB6977
:102C900093F85830FB75BB69022283F85820FB7902
:102CA000042B28D801A252F823F000BFF72C00080B
:102CB000C12C0008CF2C0008DB2C0008E32C0008F6
:102CC000BB695A6DBB681A43BB695A6513E0BB699F
:102CD0005B6D5A1CBB695A650DE0BB69BA685A65E1
:102CE00009E0FB7D022B03D0BB69BA685A6501E09D
:102CF0000023FB6100BFFB7D012B2AD1BB6904339C
:102D0000184600F015FDBB69DB6A01229A40144B9E
:102D10001B681343124A1360BB69DA6A13469B00AF
:102D200013449B000F4A1A44BB69043319461046EA
:102D300000F0A3FCBB69DA6A0B4B1B68DB6A9A42A2
:102D400007D90A4B4FF080521A60BFF34F8FBFF381
:102D50006F8F00F053FAFB6918462037BD4680BDDF
:102D6000280100204C0000204800002004ED00E075
:102D700080B58CB000AFF860B9603B601346FB7162
:102D80000123FB62FB68BB62EFF311824FF0BF03CC
:102D900083F31188BFF36F8FBFF34F8FFA61BB616D
:102DA000FB697B623B68002B03D0BB6A5A6D3B68B2
:102DB0001A60BB6A93F8583087F82330BB6A022246
:102DC00083F85820FB79042B28D801A252F823F06D
:102DD0001D2E0008E52D0008F32D0008FF2D00082A
:102DE000072E0008BB6A5A6DBB681A43BB6A5A6556
:102DF00014E0BB6A5B6D5A1CBB6A5A650EE0BB6A85
:102E0000BA685A650AE097F82330022B03D0BB6AF0
:102E1000BA685A6501E00023FB6200BF97F82330CF
:102E2000012B37D1204B1B68002B1CD1BB6A04330C
:102E3000184600F07DFCBB6ADB6A01229A401B4BFE
:102E40001B681343194A1360BB6ADA6A13469B0076
:102E500013449B00164A1A44BB6A043319461046B1
:102E600000F00BFC05E0BB6A18331946114800F06E
:102E700004FCBB6ADA6A104B1B68DB6A9A4209D908
:102E8000BB6B002B03D0BB6B01221A6002E00B4B23
:102E900001221A607B6A7B617B6983F31188FB6A7C
:102EA00018463037BD4680BD48010020280100206B
:102EB0004C000020E00000204800002034010020E9
:102EC00080B588B000AF786039607B68FB61EFF354
:102ED00011824FF0BF0383F31188BFF36F8FBFF3ED
:102EE0004F8F3A61FB603B69BB61FB6993F85830D7
:102EF000FB75FB69022283F85820FB695B6D5A1C45
:102F0000FB695A65FB7D012B37D1204B1B68002BD9
:102F10001CD1FB690433184600F00AFCFB69DB6A2C
:102F200001229A401A4B1B681343194A1360FB692C
:102F3000DA6A13469B0013449B00164A1A44FB6945
:102F400004331946104600F098FB05E0FB6918337E
:102F50001946114800F091FBFB69DA6A0F4B1B68B8
:102F6000DB6A9A4209D93B68002B03D03B680122F7
:102F70001A6002E00A4B01221A60BB69BB60BB68A1
:102F800083F3118800BF2037BD4680BD4801002073
:102F9000280100204C000020E00000204800002014
:102FA0003401002080B584B000AF78607B68002BCE
:102FB00002D10E4B1B6800E07B68BB6000F006F995
:102FC000BB6893F85830DBB2022B06D1BB680022F5
:102FD00083F858200123FB6001E00023FB6000F030
:102FE0000DF9FB6818461037BD4680BD480000202B
:102FF00080B584B000AF78603960294B1B68FB60F6
:10300000284B1B680433184600F092FB0346002B44
:103010000BD1244B1B68DB6A012202FA03F3DA436B
:10302000214B1B681340204A13607B68B3F1FF3FBC
:103030000AD13B68002B07D01A4B1B680433194692
:103040001A4800F01AFB26E0FA687B681344BB605C
:10305000144B1B68BA685A60BA68FB689A4209D276
:10306000134B1A680F4B1B6804331946104600F0C7
:1030700027FB10E00F4B1A680A4B1B6804331946F4
:10308000104600F01DFB0C4B1B68BA689A4202D236
:10309000094ABB68136000BF1037BD4680BD00BF42
:1030A0002401002048000020280100200C010020FD
:1030B000DC000020D80000204001002000000000BB
:1030C00080B485B000AFF860B9607A60FB68043BFB
:1030D000FB60FB684FF080721A60FB68043BFB608A
:1030E000BB6823F00102FB681A60FB68043BFB60CD
:1030F000084AFB681A60FB68143BFB607A68FB684F
:103100001A60FB68203BFB60FB6818461437BD461D
:1031100080BC70471931000880B483B000AF4FF015
:10312000BF0383F31188BFF36F8FBFF34F8F7B60B3
:10313000FEE70B4B19680868B0E8F00F80F30988C8
:10314000BFF36F8F4FF0000080F311884EF00D0E2B
:10315000704700BFAFF30080AFF30080AFF3008093
:103160004800002000BF5D480068006880F30888C0
:1031700062B661B6BFF34F8FBFF36F8F00DF00BF42
:1031800000BF80B500AF0C4A0B4B1B6843F47F03B4
:103190001360094A084B1B6843F07F43136000F03B
:1031A0008BF8064B00221A60FFF7DDFFFFF7B4FF34
:1031B0000023184680BD00BF20ED00E0280000205D
:1031C00080B400AF00BFBD4680BC704780B483B000
:1031D00000AF4FF0BF0383F31188BFF36F8FBFF3CE
:1031E0004F8F7B60044B1B680133034A136000BFA1
:1031F0000C37BD4680BC70472800002080B483B0E7
:1032000000AF094B1B68013B074A1360064B1B6864
:10321000002B04D100237B607B6883F3118800BFFF
:103220000C37BD4680BC704728000020EFF30980B2
:10323000BFF36F8F0E4B1A6820E9F00F10602DE975
:1032400008404FF0BF0080F31188FEF7F9FF4FF000
:10325000000080F31188BDE8084019680868B0E8EC
:10326000F00F80F30988BFF36F8F7047AFF30080D2
:103270004800002000BF80B582B000AF4FF0BF0310
:1032800083F31188BFF36F8FBFF34F8F7B60FEF71F
:103290002BFF0346002B03D0064B4FF080521A60E1
:1032A00000233B603B6883F3118800BF0837BD46AD
:1032B00080BD00BF04ED00E080B400AF044B054AC0
:1032C0001A60054B07221A6000BFBD4680BC7047DC
:1032D00014E000E03F19010010E000E008ED00E01C
:1032E00080B586B000AF78600023FB60FEF794FDE8
:1032F000404B1B68002B01D100F0DAF83E4B1A68F6
:103300007B681340002B6DD17B68002B0DD0082209
:103310007B6813447B607B6803F00703002B04D0B9
:103320007B6823F0070308337B607B68002B59D050
:10333000324B1B687A689A4254D8314B3B61304B10
:103340001B687B6104E07B693B617B691B687B6177
:103350007B695A687B689A4203D27B691B68002BA1
:10336000F1D1244B1B687A699A423BD03B691B68B8
:1033700008221344FB607B691A683B691A607B6909
:103380005A687B68D21A08235B009A420FD97A697F
:103390007B681344BB607B695A687B68D21ABB6840
:1033A0005A607B697A685A60B86800F0E3F8134B9A
:1033B0001A687B695B68D31A104A13600F4B1A684E
:1033C000104B1B689A4203D20C4B1B680D4A1360CA
:1033D0007B695A68084B1B681A437B695A607B6992
:1033E00000221A60FEF726FDFB6818461837BD4616
:1033F00080BD00BF5449002060490020584900208A
:103400004C4900205C49002080B584B000AF786052
:103410007B68FB607B68002B27D008235B42FA683F
:103420001344FB60FB68BB60BB685A68114B1B68A8
:103430001340002B19D0BB681B68002B15D1BB684B
:103440005A680C4B1B68DB431A40BB685A60FEF796
:10345000E3FCBB685A68084B1B681344064A1360B8
:10346000B86800F087F8FEF7E5FC00BF1037BD46EE
:1034700080BD00BF604900205849002080B400AFE3
:10348000024B1B681846BD4680BC70475849002057
:1034900080B400AF024B1B681846BD4680BC704725
:1034A0005C49002080B400AF00BFBD4680BC7047BF
:1034B00080B485B000AF4FF49043BB60274BFB60F6
:1034C000FB6803F00703002B0CD0FB680733FB609D
:1034D000FB6823F00703FB60BA68FB68D31A1F4A36
:1034E0001344BB60FB687B601D4A7B6813601C4B08
:1034F00000225A607A68BB681344FB600822FB68AC
:103500009B1AFB60FB6823F00703FB60FB68154A0E
:103510001360144B1B6800225A60124B1B68002278
:103520001A607B683B603B68FA68D21A3B685A6055
:103530000C4B1A683B681A603B685B680A4A136068
:103540003B685B68094A1360094B4FF000421A6000
:1035500000BF1437BD4680BC704700BF4C0100203F
:103560004C490020544900205C4900205849002063
:103570006049002080B485B000AF7860274BFB60C5
:1035800002E0FB681B68FB60FB681A687B689A4274
:10359000F7D3FB68BB60FB685B68BA681A447B685A
:1035A0009A4208D1FB685A687B685B681A44FB68DA
:1035B0005A60FB687B607B68BB607B685B68BA684D
:1035C0001A44FB681B689A4218D1FB681A68144BAE
:1035D0001B689A420DD07B685A68FB681B685B6861
:1035E0001A447B685A60FB681B681A687B681A601B
:1035F00008E00B4B1A687B681A6003E0FB681A68E6
:103600007B681A60FA687B689A4202D0FB687A6825
:103610001A6000BF1437BD4680BC70474C4900207B
:103620005449002080B483B000AF78607B6803F118
:1036300008027B685A607B684FF0FF329A607B68B3
:1036400003F108027B68DA607B6803F108027B689B
:103650001A617B6800221A6000BF0C37BD4680BC2F
:10366000704780B483B000AF78607B6800221A6135
:1036700000BF0C37BD4680BC704780B485B000AF3A
:10368000786039607B685B68FB603B68FA685A6009
:10369000FB689A683B689A60FB689B683A685A6066
:1036A000FB683A689A603B687A681A617B681B68B5
:1036B0005A1C7B681A6000BF1437BD4680BC704737
:1036C00080B485B000AF786039603B681B68BB6030
:1036D000BB68B3F1FF3F03D17B681B69FB600CE063
:1036E0007B680833FB6002E0FB685B68FB60FB689B
:1036F0005B681A68BB689A42F6D9FB685A683B68EF
:103700005A603B685B683A689A603B68FA689A60FE
:10371000FB683A685A603B687A681A617B681B6884
:103720005A1C7B681A6000BF1437BD4680BC7047C6
:1037300080B485B000AF78607B681B69FB607B68F4
:103740005B687A6892689A607B689B687A6852685E
:103750005A60FB685A687B689A4203D17B689A6812
:10376000FB685A607B6800221A61FB681B685A1E5E
:10377000FB681A60FB681B6818461437BD4680BC9E
:1037800070470000002103E00A4B5B5843500431AE
:1037900009480A4B42189A42F6D3094A02E000232C
:1037A00042F8043B074B9A42F9D3FDF725FDFCF79D
:1037B00005FD704708380008000000202C0000209C
:1037C0002C0000206C490020FEE70346024493428F
:1037D00000D1704703F8011BF9E70000F8B500BFFE
:1037E000F8BC08BC9E467047F8B500BFF8BC08BCE2
:0437F0009E4670473A
:0C37F4006C65640049444C450000000076
:043800003501000886
:0438040011010008A6
:10380800000000000102030401020304060708097E
:103818000204060800A24A0400000000000000009C
:0C3828000102030406070809AAAAAAAAC4
:040000050800378533
:00000001FF
