:020000040800F2
:10000000FF4F0020092000083102000833020008D9
:10001000350200083702000839020008000000001D
:10002000000000000000000000000000811C00082B
:100030003D02000800000000D91C0008251D000832
:100040004D2000084D2000084D2000084D200008DC
:100050004D2000084D2000084D2000084D200008CC
:100060004D2000084D2000084D2000084D200008BC
:100070004D2000084D2000084D2000084D200008AC
:100080004D2000084D2000084D2000084D2000089C
:100090004D2000084D2000084D2000084D2000088C
:1000A0004D2000084D2000084D2000084D2000087C
:1000B0004D2000084D2000084D2000084D2000086C
:1000C0004D2000084D2000084D2000084D2000085C
:1000D0004D2000084D2000084D2000084D2000084C
:1000E0004D2000084D2000084D20000800000000B1
:1000F0000000000000000000000000000000000000
:0C01000000000000000000005FF808F1A3
:1001100010B5054C237833B9044B13B10448AFF341
:1001200000800123237010BD2C000020000000007F
:10013000602000080C4B43B10C4810B50C49AFF3DC
:1001400000800C48036823B910BD0A48036833B91E
:100150007047094B002BF7D0BDE810401847064BFD
:10016000002BF5D0184700BF0000000060200008F9
:10017000300000202C0000200000000008B5094CD1
:100180000221204600F08BF94FF4FA7001F0A8F834
:100190002046022100F085F94FF4FA7001F0A0F832
:1001A000EEE700BF0008014008B5084C04212046D6
:1001B00000F075F9C82001F093F82046042100F002
:1001C00070F9C82001F08CF8F0E700BF000801408A
:1001D000FEE708B54FF00060002100F06BF8BDE8C5
:1001E00008404FF4407000F02DB808B5FFF7F1FF5C
:1001F0000121042000F0E0FA4FF6FF73054906489C
:100200000B8001238B701023CB70BDE8084000F0F9
:10021000DAB800BF664900200008014082B00190B2
:10022000019B0BB902B07047019B013B0193F7E7BB
:100230007047FEE7FEE7FEE7FEE77047704770474E
:100240007047000040F0BF60024B40F40030D860BF
:10025000704700BF00ED00E010B5C2780378E2B14E
:10026000124AD1684278C943C1F30221C1F10404A2
:10027000A2400F24807824FA01F101400A430C497E
:100280001201C818D2B280F8002303F01F005A09E7
:100290000123834041F8223010BD01215A0903F0A7
:1002A0001F0301FA03F320320149F3E700ED00E0F8
:1002B00000E100E021F0604121F07F01014B0143AA
:1002C0009960704700ED00E0044B1A6911B11043CA
:1002D0001861704722EA0000FAE700BF00ED00E075
:1002E000044B04281A680CBF42F0040222F00402F6
:1002F0001A60704710E000E008B5264B984209D11B
:100300000121042000F070FA00210420BDE808401B
:1003100000F06ABA204B984206D10121082000F073
:1003200063FA00210820F1E71C4B984206D1012115
:10033000102000F059FA00211020E7E7184B9842EE
:1003400006D10121202000F04FFA00212020DDE716
:10035000144B984206D10121402000F045FA0021BB
:100360004020D3E7104B984206D10121802000F0B5
:100370003BFA00218020C9E70C4B984208D10121AB
:100380004FF4807000F030FA00214FF48070BDE728
:1003900008BD00BF00080140000C014000100140F2
:1003A0000014014000180140001C014000200140E1
:1003B000012108B5084600F017FABDE80840002101
:1003C000012000F011BACB782DE9F041DA0648BFE0
:1003D0008A780E8803F00F0548BF154316F0FF0F0B
:1003E0001AD000214FF0010E4FF00F0C02680EFAE8
:1003F00001F737EA06040BD18C000CFA04F822EA64
:10040000080205FA04F4282B42EA040225D14761C8
:1004100001310829EBD10260FF2E1CD900214FF0D9
:10042000010E4FF00F0C426801F108040EFA04F4BB
:1004300034EA06070BD18F000CFA07F822EA08020B
:1004400005FA07F7282B42EA07020AD14461013175
:100450000829E9D14260BDE8F081482B08BF076157
:10046000D6E7482B08BF0461F1E74FF6FF7303801E
:10047000022383700423C37070478368194214BF3A
:10048000012000207047806880B27047C36819421D
:1004900014BF012000207047C06880B2704701611E
:1004A0007047416170470AB101617047416170470F
:1004B000C160704741F480338361816183618369E6
:1004C00083697047054A136823F07F031B041B0CE4
:1004D000194341EA00111160704700BF000001405C
:1004E000014B1860704700BF1C0020420028164ACC
:1004F00030B500F44015B4BFD3695368B5F5401F5B
:1005000084B210D1556823F0706325F07065556092
:1005100019B1420D1201944023430B4A0028B4BF85
:10052000D361536030BDC2024DBF0322420D1201A0
:10053000C0F303454CBFAA4004FA02F223EA0203C7
:1005400043F07063E4E700BF0000014010B50F24E2
:1005500001F0030301F0FC0101F1804101F580315C
:100560008A689B009C4022EA04028A608A6898405C
:100570001043886010BD014B18607047DC002042BA
:100580000D4B1A6842F001021A6059680B4A0A4082
:100590005A601A6822F0847222F480321A601A6853
:1005A00022F480221A605A6822F4FE025A604FF444
:1005B0001F029A60704700BF001002400000FFF861
:1005C0000C4BB0F5803F1A6822F480321A601A682A
:1005D00022F480221A6003D0B0F5802F05D0704736
:1005E0001A6842F480321A6070471A6842F4A022F6
:1005F000F9E700BF00100240034A136823F0F80334
:1006000043EAC0001060704700100240014B1860C0
:10061000704700BF00004242034A536823F47C1332
:10062000194301435160704700100240014B1860AC
:10063000704700BF60004242034A536823F003033F
:1006400018435060704700BF00100240024B5868CA
:1006500000F00C00704700BF00100240034A5368CE
:1006600023F0F00318435060704700BF00100240B1
:10067000034A536823F4E06318435060704700BF97
:1006800000100240034A536823F4605343EAC00059
:100690005060704700100240044B1A7811B11043AB
:1006A0001870704722EA0000FAE700BF0910024004
:1006B000014B1860704700BFD8004242034A53689C
:1006C00023F4404318435060704700BF00100240BD
:1006D0000022064B01281A701A7002D0042802D09A
:1006E00070471870704705221A707047201002403A
:1006F000014B1860704700BF80044242024A136AEF
:1007000018431062704700BF00100240014B186090
:10071000704700BF3C0442421C4A10B5536803F0C6
:100720000C03042B01D0082B1FD0194B0360536816
:10073000184CC3F30313E15C0368CB40436051687A
:10074000C1F30221615C23FA01F181605168C1F3B8
:10075000C221615CCB40C36052680F49C2F3813251
:100760008A5CB3FBF2F3036110BD53685168C3F3B5
:100770008343CC0303F1020302D408494B43D5E77A
:1007800051688903F9D40249F8E700BF001002401C
:1007900000127A00040000200000002000093D0043
:1007A000044B5A6911B110435861704722EA0000A6
:1007B000FAE700BF00100240044B9A6911B11043E0
:1007C0009861704722EA0000FAE700BF001002407B
:1007D000044BDA6911B11043D861704722EA000076
:1007E000FAE700BF00100240044BDA6811B1104371
:1007F000D860704722EA0000FAE700BF001002400C
:10080000044B1A6911B110431861704722EA0000C5
:10081000FAE700BF00100240014B1860704700BFAC
:1008200040044242014B1860704700BF4C004242F6
:10083000014B1870704700BF071002404209012A9F
:10084000074B07D11B6800F01F0023FA00F000F0EF
:1008500001007047022A0CBF1B6A5B6AF3E700BF06
:1008600000100240002307B501933120FFF7E6FF97
:10087000019B01330193019BB3F5A06F01D00028C8
:10088000F3D03120FFF7DAFF003018BF012003B0AA
:100890005DF804FB024A536A43F080735362704769
:1008A00000100240034B9B68184214BF0120002037
:1008B000704700BF00100240014B1870704700BF26
:1008C0000A100240374B82B01A6842F001021A60E7
:1008D0005968354A0A405A601A6822F0847222F434
:1008E00080321A601A6822F480221A605A6822F450
:1008F000FE025A604FF41F029A6000220092019299
:100900001A6842F480321A601A6802F400320192C6
:10091000009A01320092019A1AB9009AB2F5A06FBA
:10092000F2D11A6812F4003218BF01220192019A22
:10093000012A05D04FF000621C4B9A6002B070474C
:100940001B4A116841F010011160116821F0030188
:100950001160116841F0020111605A685A605A68CA
:100960005A605A6842F480625A605A6822F47C12D3
:100970005A605A6842F4E8125A601A6842F080726B
:100980001A601A689201FCD55A6822F003025A6074
:100990005A6842F002025A605A6802F00C02082AB1
:1009A000FAD1C7E7001002400000FFF800ED00E0B8
:1009B00000200240114A124B516801F00C01042939
:1009C00001D008290AD00F49196052680E49C2F3B4
:1009D0000312895C1A68CA401A60704751685068EF
:1009E000C1F38341C00301F1020102D4074841432E
:1009F000EAE750688003F9D40248F8E700100240A3
:100A00002400002000127A001400002000093D009C
:100A10004269064B9A4201D000207047806A044B1D
:100A20009842F9D0B0FA80F0400970471C010020CC
:100A300004010020064A13681968064B19B94FF0E3
:100A4000FF321A6070471268D268D2685268F8E7BD
:100A50004C000020FC000020F8B51B4B1B4E1D680D
:100A6000044630680F46043001F09BFA334640B923
:100A700001203168164EC96A3268884022EA0002B5
:100A80003260621C07D137B1196812480431BDE8E1
:100A9000F84001F063BA2C441A68A542546007D9A3
:100AA0000D4A10681968BDE8F840043101F062BAD7
:100AB0000A4A10681968043101F05CFA084B1A6898
:100AC000944238BF1C60F8BD44010020480000205B
:100AD000CC0000201C010020500000204C00002011
:100AE000FC0000202DE9F84F4FEA820A804650466C
:100AF0000D4699460B9E01F075F90746002800F057
:100B0000A6805C2001F06EF90446002800F09C806D
:100B100052460763A521384601F099FA236BAAF1E2
:100B2000040A9A442AF0070A6B1E04F134020F35B6
:100B3000597802F8011B13F8011F09B1AB42F7D134
:100B40000A9D4FF0000B042D28BF0425271DE562E8
:100B5000E564384684F843B0C4F850B001F0FBF9BE
:100B6000C5F1050504F1180001F0F5F9C4F854B019
:100B70002461A561646284F858B04A4641465046F3
:100B800001F06CF8206006B1346001F08CF8374B4E
:100B9000374E1A68DFF8148101321A603268002A71
:100BA00058D134601B68012B25D1324801F0C8F9B7
:100BB000314801F0C5F9314801F0C2F9DFF8F09091
:100BC0002F4801F0BDF92F4D2F4801F0B9F94846E3
:100BD00001F0B6F9284601F0B3F92C4801F0B0F95C
:100BE0002B4801F0ADF92B4801F0AAF92A4BC3F8C4
:100BF00000902A4B1D600125294A2A49136808687C
:100C000001331360E26A636405FA02F303431420BC
:100C10000B60184B394600FB023001F09FF901F0E0
:100C200051F8D8F8003063B13368DA6AE36A9A425F
:100C300007D24FF080521C4B1A60BFF34F8FBFF3A7
:100C40006F8F2846BDE8F88F384601F045F94FF020
:100C5000FF35F6E7D8F80030002BCCD13368DA6ADC
:100C6000E36A9A4298BF3460C5E700BFB80000202D
:100C70004800002054000020680000207C00002074
:100C800090000020E4000020A400002004010020C7
:100C9000300100201C0100204C00002050000020EA
:100CA000C8000020CC00002004ED00E01801002066
:100CB000D000002070B50446244D00F0F4FF04B9C4
:100CC0002C68261D304601F06CF960B91421E06AE9
:100CD0001F4B41435B5833B901221E4982400B68C8
:100CE00023EA02030B60A36A1BB104F1180001F0B0
:100CF00058F9194A1368013313602B689C4218D1C4
:100D00003146164801F02AF9154A13680133136079
:100D100000F0D8FF134B1B6853B12B689C4207D1DE
:100D20004FF08052104B1A60BFF34F8FBFF36F8F9D
:100D300070BD0E4A206B1368013B136001F0CCF8C4
:100D4000204601F0C9F8FFF775FEE1E748000020F2
:100D500054000020CC000020C800002030010020FA
:100D6000BC0000201801002004ED00E0B8000020C5
:100D700038B5144B05461B6898421DD000F093FF10
:100D80006C6900F09FFF104B1B689C4216D00F4B04
:100D90001B689C4212D00E4B9C4205D1AB6A002BC3
:100DA00014BF0220032038BD0A4B9C4208D0002CFF
:100DB0000CBF0420012038BD002038BD022038BD02
:100DC000042038BD480000204C00002050000020C6
:100DD0001C0100203001002010B5044600F063FF24
:100DE0000CB9034B1C68E46A00F06CFF204610BD90
:100DF00048000020EFF311834FF0BF0282F3118807
:100E0000BFF36F8FBFF34F8F08B9034A106883F3A6
:100E10001188C06A704700BF4800002004292DE9EE
:100E2000F04128BF042104460E4600F03CFF0CB9F7
:100E3000284B1C68E26CB24241D0264B43D2196861
:100E40008C4245D01B68DD6AB5428CBF0025012568
:100E5000E76AA369BA4208BFE662002B4FF01403A9
:100E6000E664A4BFC6F10506A6611B4E626903FBDA
:100E700007639A421AD104F10408404601F091F840
:100E800038B90122154902FA07F70B6823EA070768
:100E90000F6001231149E26A08689340034314205C
:100EA0000B6000FB0260414601F058F83DB14FF085
:100EB00080520B4B1A60BFF34F8FBFF36F8FBDE8AB
:100EC000F04100F0FFBE1D68631B5D425D41BFE75E
:100ED0000025BDE74800002054000020CC00002081
:100EE00004ED00E070B5044660B3174D2B689842DE
:100EF00028D000F0D8FE2046FFF78AFDF0B1261D6D
:100F0000304601F04EF801231049E26A0868934028
:100F1000034314200B600E4B314600FB023001F0FE
:100F20001DF82B68E26ADB6A9A4207D34FF08052C1
:100F3000084B1A60BFF34F8FBFF36F8FBDE870404F
:100F400000F0C0BE70BD00BF48000020CC000020F3
:100F50005400002004ED00E0F8B50546EFF31186DB
:100F60004FF0BF0383F31188BFF36F8FBFF34F8F31
:100F7000FFF74EFD38B3154B1B68EBB9144BEC6A09
:100F80001B682F1DD86A8442384634BF00240124D0
:100F900001F007F801230F49EA6A08689340034308
:100FA00014200B600C4B394600FB023000F0D6FFDA
:100FB00086F311882046F8BD05F11801074800F0B6
:100FC000CDFF0024F4E70446F2E700BFC400002090
:100FD00048000020CC000020540000200401002024
:100FE00013B50024104B00940193782223460F4937
:100FF0000F48FFF777FD012814D14FF0BF0383F3AB
:101000001188BFF36F8FBFF34F8F4FF0FF32094B43
:101010001A60094B1860094B1C6002B0BDE8104013
:1010200000F0A2BE02B010BDF8000020822000082F
:1010300011130008FC0000201801002044010020CA
:101040004FF0BF0383F31188BFF36F8FBFF34F8F50
:101050000022024B1A6000F025BE00BF18010020DC
:10106000024A136801331360704700BFC4000020B8
:10107000014B1868704700BF44010020014B1868FD
:10108000704700BF44010020014B1868704700BF43
:10109000B800002008B9024B18683430704700BF10
:1010A000480000202DE9F84F364B1B68002B47D134
:1010B000354B1C6801341C605CB9344A344B1168F0
:1010C00018681060334A1960136801331360FFF722
:1010D000B1FC314D4FF0000B2B68304F9C423ED39A
:1010E000DFF8A880DFF8C490D8F80020126872BB3F
:1010F0004FF0FF322A6032E006F1040A504600F059
:1011000050FFB16A19B106F1180000F04AFF012240
:101110004FF0140EF06AD9F8003002FA00F11943CA
:101120001F4BC9F800100EFB0030514600F016FFAF
:101130003868F16AC26A914228BF4FF0010BD3E7C9
:10114000184A4FF0000B13680133136011E0D8F810
:101150000020D268D66871688C42CDD229603A6886
:101160000F4BD16A14224A439A58022A28BF4FF0E3
:10117000010B0D4A1268002A18BF4FF0010B5846A8
:10118000BDE8F88FC4000020440100204C0000207E
:101190005000002000010020FC000020480000203A
:1011A00054000020C000002048010020CC00002096
:1011B0002DE9F84300F077FD2A4B1A68013A1A60CE
:1011C0001C682CB1002400F07DFD2046BDE8F883AA
:1011D000254B1B68002BF5D0DFF8A490234FDFF8D8
:1011E000A480D9F80030E3B90CB1FFF723FC204DFF
:1011F0002C6844B101271F4EFFF754FF00B1376040
:10120000013CF9D12C601B4B1B68002BDAD04FF04E
:101210008052194B1A60BFF34F8FBFF36F8F0124B9
:10122000D1E7D9F80C300125DC68261D04F118003F
:1012300000F0B7FE304600F0B4FE1420E26A3968D0
:1012400005FA02F30B4300FB028031463B6000F0DD
:1012500085FE0A4BE26A1B68DB6A9A4224BF054B93
:101260001D60BEE7C4000020B8000020CC000020B4
:10127000C00000204801002004ED00E048000020EC
:10128000040100205400002010B5FFF7E9FE124BC6
:1012900004681A686318A24217D29C4219D99A426C
:1012A0002CBF00210121036019B10021981AFFF71A
:1012B000D3FBFFF77DFF38B94FF08052074B1A6020
:1012C000BFF34F8FBFF36F8F10BD9C42E7D9012151
:1012D000E9E70021E7E700BF4401002004ED00E05A
:1012E00008B540B94FF08052084B1A60BFF34F8FDA
:1012F000BFF36F8F08BDFFF7B3FE0021FFF7ACFB14
:10130000FFF756FF0028EDD008BD00BF04ED00E058
:1013100008B5174E174C236863B9174B1B68012B90
:10132000F8D94FF08052154B1A60BFF34F8FBFF3BF
:101330006F8FEFE7FFF794FE3568FFF739FF002D59
:10134000E9D000F0B0FCF368DD68281D00F029FE4C
:101350000B4A1368013B13602368013B236000F0D4
:10136000B1FC286B00F0B8FD284600F0B5FDD2E7CF
:1013700030010020BC0000205400002004ED00E0FB
:10138000B80000201E4B70B51A681E4B12B1012226
:101390001A6070BD1C4C1A6023681B6B1A68B2F18E
:1013A000A53F0BD15A68B2F1A53F07D19A68B2F1B7
:1013B000A53F03D1DB68B3F1A53F04D020682168C5
:1013C0003431FEF705FF114B1B68B3FA83F3142089
:1013D000DBB2C3F11F0300FB03F20D498D186E68E9
:1013E000083276680A44964200FB031308BF72680D
:1013F0006E6008BF6A605B68DB68236070BD00BF19
:10140000C40000204801002048000020CC0000203B
:101410005400002070B50446234E00F044FC04B98B
:101420003468251D284600F0BCFD60B91421E06A2F
:101430001E4B41435B5833B901221D4982400B6862
:1014400023EA02030B60A36A1BB104F1180000F049
:10145000A8FD2946174D184800F080FD00F032FC29
:101460002A682AB100F01FFCFFF7E4FA00F02AFC1A
:1014700033689C4216D12B6843B14FF080520F4B1A
:101480001A60BFF34F8FBFF36F8F70BD0C4A0A49CC
:1014900012680968914201D1336070BDBDE87040A7
:1014A000FFF770BF70BD00BF48000020540000204F
:1014B000CC000020180100201C01002004ED00E0F9
:1014C000B800002010B50C46054B1968183100F023
:1014D00051FD2046BDE810400121FFF7BDBA00BF15
:1014E0004800002010B51446074B41F000411A682F
:1014F00091611968183100F031FD2046BDE81040B7
:101500000121FFF7A9BA00BF4800002038B5C36821
:10151000DC6804F11805284600F043FD114B1B68F8
:10152000E3B9251D284600F03CFD01230E49E26A7F
:1015300008689340034314200B6029460B4B00FBC3
:10154000023000F00BFD0A4BE26A1B68DB6A9A422C
:1015500085BF0120074B0020186038BD294606488A
:10156000EFE700BFC4000020CC00002054000020A2
:1015700048000020480100200401002070B501242B
:10158000C56841F0004101602E1D00F00AFD3046A3
:1015900000F007FD0C49EA6A086804FA02F3034305
:1015A00014200B60094B314600FB023000F0D6FCE2
:1015B000074BEA6A1B68DB6A9A4283BF054B2046E9
:1015C0001C60002070BD00BFCC0000205400002033
:1015D0004800002048010020034B1B680360034BB8
:1015E0001B684360704700BF0001002044010020D9
:1015F00038B50D46044600F056FB0E4B2A681868B5
:10160000531C10D00C4B21681B689942636801D0B1
:1016100098420DD2C11A8A420AD91B1A13442B6070
:101620002046FFF7D9FF002400F04CFB204638BDD0
:101630000124F9E744010020000100200122014BB0
:101640001A6070474801002000B1806C704700B1FB
:10165000816470472DE9F0410C46174698460646CE
:1016600060BB1B4B1D6805F134036360EB6A2560AA
:1016700023612B6BE3616B6CA360237B032B07D18E
:10168000FFF7EEFCAB6A0BB102232373FFF790FD6B
:10169000EB6CB8F1050F63614FF00003A3610FD04D
:1016A00084F80C808FB1296B0A46531A12F8010B8B
:1016B000A528FAD09B082384BDE8F0810546D2E72F
:1016C0003046FFF755FB2073ECE72784BDE8F08137
:1016D000480000202DE9F84F0D6881460C469346DE
:1016E0001DB300254FF0240A4B6801F108075B6821
:1016F000BB424B6004BFCB684B604B68D3F80C8097
:1017000063680AFB05915B6801229F42636008BF22
:10171000E36805F1010508BF63606368DE685B4646
:101720003046FFF797FFB045EAD12846BDE8F88F6D
:101730002DE9F84305461746FFF792FC1F4B1B683F
:101740008B4239D84FF0000824264446DFF88090B9
:1017500008F1500106FB045001224944FFF7BAFF8B
:10176000A8F1140818F1640F0444F1D1144B0222BB
:10177000196806FB0450FFF7ADFF124B04441968CB
:10178000022206FB0450FFF7A5FF044404220E4981
:1017900006FB0450FFF79EFF044406FB045003229F
:1017A0000A49FFF797FF04440FB100233B60FFF79E
:1017B000FFFC2046BDE8F8830024F8E7B8000020CD
:1017C0004C00002050000020300100201C010020AF
:1017D00054000020014B1868704700BF48000020EB
:1017E0002DE9F0410446002839D01E4DC36A2A680D
:1017F000D26A934233D2142782691B4E002AA8BFB3
:101800002A6807FB0363A2BFD26AC2F105028261A4
:1018100042699A4220D100F10408404600F0C1FB21
:10182000124A48B9E06A4743F3592BB901211368BA
:10183000814023EA010313602B681168D86A0123F1
:1018400083400B4313601423E062414603FB0060B6
:10185000BDE8F04100F082BB2B68DB6AC362BDE8E3
:10186000F08100BF4800002054000020CC00002080
:10187000F8B5044608B90020F8BD036DC16AC26C12
:10188000013B91420365F6D0002BF4D1051D28469B
:1018900000F087FB104E114A50B91421E76A7943D2
:1018A00073582BB901201368B84023EA0003136072
:1018B000E36CC3F10501E362A1610124116804FA3C
:1018C00003F0084310601420294600FB036000F079
:1018D00045FB2046F8BD00BF54000020CC0000208E
:1018E000044B1A6890691A681B68DB6AC3F1050328
:1018F0009361704748000020044B1A681AB11968B8
:101900000A6D01320A651868704700BF4800002060
:1019100070B5164C06460D4600F0C5F923685B6DA0
:101920007BB90121236883F8581055B12846FFF789
:1019300093F84FF080520E4B1A60BFF34F8FBFF3F6
:101940006F8F00F0BFF900F0AEF923685D6D1DB137
:1019500023684EB100225A650022236883F858207C
:1019600000F0B0F9284670BD6A1EF4E74800002078
:1019700004ED00E02DE9F0411E4C1E4680460F4666
:10198000154600F090F9236893F85830022B14D0D4
:10199000012123685A6D22EA08025A65236883F8F8
:1019A000581056B13046FFF757F84FF08052124B9F
:1019B0001A60BFF34F8FBFF36F8F00F083F900F011
:1019C00072F915B123685B6D2B602368002293F8D0
:1019D0005830012B17BF012500252368596D1CBF06
:1019E000B9435965236883F8582000F06BF92846FD
:1019F000BDE8F0814800002004ED00E0F8B51D4688
:101A000004460F46164600F04EF90DB1636D2B608B
:101A1000022394F85850721EEDB284F85830032A0D
:101A20000AD8DFE802F002060410616D0F43676513
:101A300002E0636D01336365012D08D0012500F0DC
:101A400041F92846F8BD022DF1D10025F7E7261D02
:101A5000304600F0A6FA0E49E26A086805FA02F379
:101A6000034314200B600B4B314600FB023000F0A7
:101A700075FA094BE26A1B68DB6A9A42DED94FF0BD
:101A80008052064B1A60BFF34F8FBFF36F8FD6E7BC
:101A9000CC000020540000204800002004ED00E0AD
:101AA0002DE9F041069F0446EFF311864FF0BF0089
:101AB00080F31188BFF36F8FBFF34F8F0BB1606D51
:101AC0001860022394F85850013AEDB284F8583067
:101AD000032A0AD8DFE802F002060410636D1943F6
:101AE000616502E0636D01336365012D08D001205B
:101AF00086F31188BDE8F081022DF1D10020F7E7CF
:101B0000124B1B68DBB904F10408404600F049FAA7
:101B10000F4A1420E36A11689D400D434146156049
:101B20000C4A00FB032000F019FA0B4BE26A1B6819
:101B3000DB6A9A42DBD901202FB13860D8E704F183
:101B400018010648EFE7064B1860D1E7C4000020F3
:101B5000CC00002054000020480000200401002098
:101B6000480100202DE9F04104460E46EFF31187AD
:101B70004FF0BF0383F31188BFF36F8FBFF34F8F15
:101B8000022390F8585080F85830436DEDB201337D
:101B9000012D43651DD1144B1B68F3B900F10408F6
:101BA000404600F0FEF9114A1420E36A11689D4096
:101BB0000D43414615600E4A00FB032000F0CEF9AC
:101BC0000C4BE26A1B68DB6A9A4202D9012346B1D8
:101BD000336087F31188BDE8F08100F118010648F1
:101BE000ECE7064A1360F4E7C4000020CC000020B4
:101BF000540000204800002004010020480100207B
:101C000010B580B9094B1C6800F04DF8002094F81D
:101C10005830022B0ABF84F858000446012400F013
:101C200051F8204610BD0446EEE700BF48000020F2
:101C30004FF0BF0383F31188BFF36F8FBFF34F8F54
:101C4000FEE755480068006880F3088862B661B610
:101C5000BFF34F8FBFF36F8F00DF00BF4FF0807374
:101C600040F8043C054B21F0010140F8081C40F805
:101C70000C3C40F8202C4038704700BF311C000855
:101C8000074B19680868B0E8F00F80F30988BFF3C4
:101C90006F8F4FF0000080F311884EF00D0E7047EB
:101CA0004800002070474FF0BF0383F31188BFF353
:101CB0006F8FBFF34F8F024A136801331360704771
:101CC00028000020034A1368013B13600BB983F31B
:101CD0001188704728000020EFF30980BFF36F8F51
:101CE0000F4B1A6820E9F00F10602DE908404FF003
:101CF000BF0080F31188FFF745FB4FF0000080F331
:101D00001188BDE8084019680868B0E8F00F80F352
:101D10000988BFF36F8F7047AFF30080AFF3008087
:101D20004800002008B54FF0BF0383F31188BFF3CC
:101D30006F8FBFF34F8FFFF7B5F918B14FF0805297
:101D4000024B1A60002383F3118808BD04ED00E004
:101D5000034A044B1A60072243F8042C704700BF63
:101D60003F19010014E000E008B5094B1A6842F47D
:101D70007F021A601A6842F07F421A60FFF7E8FF9C
:101D80000022044B1A60FFF75CFFFFF751FF00BF12
:101D900020ED00E02800002008ED00E010B50F4B1A
:101DA0001A68824218D35C681919884201BF4168D9
:101DB000184609195960446801198A4207D108492F
:101DC00009688A421FBF5168126809194160984228
:101DD000026018BF186010BD1346E1E75C4900209F
:101DE0004C0100202DE9F0410446FFF739F9344950
:101DF000344D0B680BBB344A344E50071DBFD01D09
:101E000020F0070002F590434FF490431CBF0246B8
:101E10001B1A00201344083B23F007037060326054
:101E2000586018600B60981A1360294B5060186056
:101E3000284B18604FF000432B602F68274216D1C3
:101E4000002C37D004F108035A071CBF23F0070306
:101E5000083363B11F4A16689046B34207D81B4A3D
:101E600015686868834204D809688D4207D1002448
:101E700020E02C68002CF7D02A462546F1E7296897
:101E800014681160C21A102A04F1080404D9E81871
:101E900042606B60FFF782FF00230D496A680868A3
:101EA000B61A864247EA0207C8F8006038BF0E60DB
:101EB0006F602B60FFF77CF92046BDE8F08100BF22
:101EC0004C01002050490020500100205C490020B6
:101ED000584900205449002010B50446E0B10F4A8B
:101EE00050F8043C1268134216D050F8081C99B9F7
:101EF00023EA020340F8043CFFF7B2F8084A54F81A
:101F0000043C1168A4F108000B441360FFF746FF7E
:101F1000BDE81040FFF74CB910BD00BF504900208C
:101F200054490020014B1868704700BF54490020F5
:101F3000014B1868704700BF58490020704700BF28
:101F400000F1080343604FF0FF32C36003610023D8
:101F500082600360704700230361704743689A689A
:101F60004B608A609A685160996003680861013328
:101F7000036070470A6830B5531C0AD103695A6878
:101F80004A6091608B6059600368086101330360A7
:101F900030BD00F108035C682568AA42EFD32346F0
:101FA000F9E74168826803698A608268516059680C
:101FB000884208BF5A600022026118680138186020
:101FC00070470000002407B5FEF70FF923464FF4D1
:101FD00080620949019400940848FEF783FD234676
:101FE0004FF480620649019400940648FEF77AFD9A
:101FF000FEF7F6FFFEE700BF782000087D0100082D
:102000007D200008A9010008002103E00A4B5B586D
:102010004350043109480A4B42189A42F6D3094A00
:1020200002E0002342F8043B074B9A42F9D3FEF743
:1020300049FCFFF7C7FF7047902000080000002010
:102040002C0000202C0000206C490020FEE70346F5
:102050000244934200D1704703F8011BF9E70000E6
:10206000F8B500BFF8BC08BC9E467047F8B500BF85
:08207000F8BC08BC9E46704755
:102078006C656431006C6564320049444C4500006D
:042088003501000816
:04208C001101000836
:102090000204060800000000010203040102030418
:1020A0000607080900000000000000000102030408
:0C20B0000607080900A24A04AAAAAAAA6E
:0400000508002009C6
:00000001FF
